{"contracts/UniswapFlashQuery.sol":{"UniswapFlashQuery":{"abi":[{"inputs":[{"internalType":"contract UniswapV2Factory","name":"_uniswapFactory","type":"address"},{"internalType":"uint256","name":"_start","type":"uint256"},{"internalType":"uint256","name":"_stop","type":"uint256"}],"name":"getPairsByIndexRange","outputs":[{"internalType":"address[3][]","name":"","type":"address[3][]"}],"stateMutability":"view","type":"function"},{"inputs":[{"internalType":"contract UniswapV2Factory","name":"_uniswapFactory","type":"address"},{"internalType":"address","name":"_token1","type":"address"},{"internalType":"address","name":"_token2","type":"address"}],"name":"getPairsByPool","outputs":[{"internalType":"address","name":"","type":"address"}],"stateMutability":"view","type":"function"},{"inputs":[{"internalType":"contract IUniswapV2Pair[]","name":"_pairs","type":"address[]"},{"internalType":"address","name":"_pairAddress","type":"address"}],"name":"getReservesByPairs","outputs":[{"internalType":"uint256[2][]","name":"","type":"uint256[2][]"}],"stateMutability":"view","type":"function"}],"evm":{"bytecode":{"linkReferences":{},"object":"608060405234801561001057600080fd5b506111bf806100206000396000f3fe608060405234801561001057600080fd5b50600436106100415760003560e01c806366cc1fbb146100465780639147982414610076578063ab2217e4146100a6575b600080fd5b610060600480360381019061005b919061098f565b6100d6565b60405161006d9190610b53565b60405180910390f35b610090600480360381019061008b9190610bb3565b6103f8565b60405161009d9190610c15565b60405180910390f35b6100c060048036038101906100bb9190610c5c565b61048e565b6040516100cd9190610e09565b60405180910390f35b606060008484905067ffffffffffffffff8111156100f7576100f6610e2b565b5b60405190808252806020026020018201604052801561013057816020015b61011d61087e565b8152602001906001900390816101155790505b50905060005b858590508110156103ec57600086868381811061015657610155610e5a565b5b905060200201602081019061016b9190610ec7565b73ffffffffffffffffffffffffffffffffffffffff16630dfe16816040518163ffffffff1660e01b8152600401602060405180830381865afa1580156101b5573d6000803e3d6000fd5b505050506040513d601f19601f820116820180604052508101906101d99190610f09565b905060008787848181106101f0576101ef610e5a565b5b90506020020160208101906102059190610ec7565b73ffffffffffffffffffffffffffffffffffffffff1663d21220a76040518163ffffffff1660e01b8152600401602060405180830381865afa15801561024f573d6000803e3d6000fd5b505050506040513d601f19601f820116820180604052508101906102739190610f09565b90508173ffffffffffffffffffffffffffffffffffffffff166370a08231876040518263ffffffff1660e01b81526004016102ae9190610c15565b602060405180830381865afa1580156102cb573d6000803e3d6000fd5b505050506040513d601f19601f820116820180604052508101906102ef9190610f4b565b84848151811061030257610301610e5a565b5b602002602001015160006002811061031d5761031c610e5a565b5b6020020181815250508073ffffffffffffffffffffffffffffffffffffffff166370a08231876040518263ffffffff1660e01b815260040161035f9190610c15565b602060405180830381865afa15801561037c573d6000803e3d6000fd5b505050506040513d601f19601f820116820180604052508101906103a09190610f4b565b8484815181106103b3576103b2610e5a565b5b60200260200101516001600281106103ce576103cd610e5a565b5b602002018181525050505080806103e490610fa7565b915050610136565b50809150509392505050565b60008060008573ffffffffffffffffffffffffffffffffffffffff16631698ee8286866101f46040518463ffffffff1660e01b815260040161043c93929190611043565b602060405180830381865afa158015610459573d6000803e3d6000fd5b505050506040513d601f19601f8201168201806040525081019061047d9190610f09565b905080915081925050509392505050565b606060008473ffffffffffffffffffffffffffffffffffffffff1663574f2ba36040518163ffffffff1660e01b8152600401602060405180830381865afa1580156104dd573d6000803e3d6000fd5b505050506040513d601f19601f820116820180604052508101906105019190610f4b565b90508083111561050f578092505b83831015610552576040517f08c379a0000000000000000000000000000000000000000000000000000000008152600401610549906110d7565b60405180910390fd5b6000848461056091906110f7565b905060008167ffffffffffffffff81111561057e5761057d610e2b565b5b6040519080825280602002602001820160405280156105b757816020015b6105a46108a0565b81526020019060019003908161059c5790505b50905060005b828110156108705760008873ffffffffffffffffffffffffffffffffffffffff16631e3dd18b838a6105ef919061112b565b6040518263ffffffff1660e01b815260040161060b919061116e565b602060405180830381865afa158015610628573d6000803e3d6000fd5b505050506040513d601f19601f8201168201806040525081019061064c9190610f09565b90508073ffffffffffffffffffffffffffffffffffffffff16630dfe16816040518163ffffffff1660e01b8152600401602060405180830381865afa158015610699573d6000803e3d6000fd5b505050506040513d601f19601f820116820180604052508101906106bd9190610f09565b8383815181106106d0576106cf610e5a565b5b60200260200101516000600381106106eb576106ea610e5a565b5b602002019073ffffffffffffffffffffffffffffffffffffffff16908173ffffffffffffffffffffffffffffffffffffffff16815250508073ffffffffffffffffffffffffffffffffffffffff1663d21220a76040518163ffffffff1660e01b8152600401602060405180830381865afa15801561076d573d6000803e3d6000fd5b505050506040513d601f19601f820116820180604052508101906107919190610f09565b8383815181106107a4576107a3610e5a565b5b60200260200101516001600381106107bf576107be610e5a565b5b602002019073ffffffffffffffffffffffffffffffffffffffff16908173ffffffffffffffffffffffffffffffffffffffff16815250508083838151811061080a57610809610e5a565b5b602002602001015160026003811061082557610824610e5a565b5b602002019073ffffffffffffffffffffffffffffffffffffffff16908173ffffffffffffffffffffffffffffffffffffffff168152505050808061086890610fa7565b9150506105bd565b508093505050509392505050565b6040518060400160405280600290602082028036833780820191505090505090565b6040518060600160405280600390602082028036833780820191505090505090565b600080fd5b600080fd5b600080fd5b600080fd5b600080fd5b60008083601f8401126108f1576108f06108cc565b5b8235905067ffffffffffffffff81111561090e5761090d6108d1565b5b60208301915083602082028301111561092a576109296108d6565b5b9250929050565b600073ffffffffffffffffffffffffffffffffffffffff82169050919050565b600061095c82610931565b9050919050565b61096c81610951565b811461097757600080fd5b50565b60008135905061098981610963565b92915050565b6000806000604084860312156109a8576109a76108c2565b5b600084013567ffffffffffffffff8111156109c6576109c56108c7565b5b6109d2868287016108db565b935093505060206109e58682870161097a565b9150509250925092565b600081519050919050565b600082825260208201905092915050565b6000819050602082019050919050565b600060029050919050565b600081905092915050565b6000819050919050565b6000819050919050565b610a4e81610a3b565b82525050565b6000610a608383610a45565b60208301905092915050565b6000602082019050919050565b610a8281610a1b565b610a8c8184610a26565b9250610a9782610a31565b8060005b83811015610ac8578151610aaf8782610a54565b9650610aba83610a6c565b925050600181019050610a9b565b505050505050565b6000610adc8383610a79565b60408301905092915050565b6000602082019050919050565b6000610b00826109ef565b610b0a81856109fa565b9350610b1583610a0b565b8060005b83811015610b46578151610b2d8882610ad0565b9750610b3883610ae8565b925050600181019050610b19565b5085935050505092915050565b60006020820190508181036000830152610b6d8184610af5565b905092915050565b6000610b8082610951565b9050919050565b610b9081610b75565b8114610b9b57600080fd5b50565b600081359050610bad81610b87565b92915050565b600080600060608486031215610bcc57610bcb6108c2565b5b6000610bda86828701610b9e565b9350506020610beb8682870161097a565b9250506040610bfc8682870161097a565b9150509250925092565b610c0f81610951565b82525050565b6000602082019050610c2a6000830184610c06565b92915050565b610c3981610a3b565b8114610c4457600080fd5b50565b600081359050610c5681610c30565b92915050565b600080600060608486031215610c7557610c746108c2565b5b6000610c8386828701610b9e565b9350506020610c9486828701610c47565b9250506040610ca586828701610c47565b9150509250925092565b600081519050919050565b600082825260208201905092915050565b6000819050602082019050919050565b600060039050919050565b600081905092915050565b6000819050919050565b610d0481610951565b82525050565b6000610d168383610cfb565b60208301905092915050565b6000602082019050919050565b610d3881610cdb565b610d428184610ce6565b9250610d4d82610cf1565b8060005b83811015610d7e578151610d658782610d0a565b9650610d7083610d22565b925050600181019050610d51565b505050505050565b6000610d928383610d2f565b60608301905092915050565b6000602082019050919050565b6000610db682610caf565b610dc08185610cba565b9350610dcb83610ccb565b8060005b83811015610dfc578151610de38882610d86565b9750610dee83610d9e565b925050600181019050610dcf565b5085935050505092915050565b60006020820190508181036000830152610e238184610dab565b905092915050565b7f4e487b7100000000000000000000000000000000000000000000000000000000600052604160045260246000fd5b7f4e487b7100000000000000000000000000000000000000000000000000000000600052603260045260246000fd5b6000610e9482610951565b9050919050565b610ea481610e89565b8114610eaf57600080fd5b50565b600081359050610ec181610e9b565b92915050565b600060208284031215610edd57610edc6108c2565b5b6000610eeb84828501610eb2565b91505092915050565b600081519050610f0381610963565b92915050565b600060208284031215610f1f57610f1e6108c2565b5b6000610f2d84828501610ef4565b91505092915050565b600081519050610f4581610c30565b92915050565b600060208284031215610f6157610f606108c2565b5b6000610f6f84828501610f36565b91505092915050565b7f4e487b7100000000000000000000000000000000000000000000000000000000600052601160045260246000fd5b6000610fb282610a3b565b91507fffffffffffffffffffffffffffffffffffffffffffffffffffffffffffffffff8203610fe457610fe3610f78565b5b600182019050919050565b6000819050919050565b600062ffffff82169050919050565b6000819050919050565b600061102d61102861102384610fef565b611008565b610ff9565b9050919050565b61103d81611012565b82525050565b60006060820190506110586000830186610c06565b6110656020830185610c06565b6110726040830184611034565b949350505050565b600082825260208201905092915050565b7f73746172742063616e6e6f7420626520686967686572207468616e2073746f70600082015250565b60006110c160208361107a565b91506110cc8261108b565b602082019050919050565b600060208201905081810360008301526110f0816110b4565b9050919050565b600061110282610a3b565b915061110d83610a3b565b925082820390508181111561112557611124610f78565b5b92915050565b600061113682610a3b565b915061114183610a3b565b925082820190508082111561115957611158610f78565b5b92915050565b61116881610a3b565b82525050565b6000602082019050611183600083018461115f565b9291505056fea2646970667358221220b92563ac2bbb17065ea80ed05468c09f166acbe125bce024dccd6aabe81d83cb64736f6c63430008110033","opcodes":"PUSH1 0x80 PUSH1 0x40 MSTORE CALLVALUE DUP1 ISZERO PUSH2 0x10 JUMPI PUSH1 0x0 DUP1 REVERT JUMPDEST POP PUSH2 0x11BF DUP1 PUSH2 0x20 PUSH1 0x0 CODECOPY PUSH1 0x0 RETURN INVALID PUSH1 0x80 PUSH1 0x40 MSTORE CALLVALUE DUP1 ISZERO PUSH2 0x10 JUMPI PUSH1 0x0 DUP1 REVERT JUMPDEST POP PUSH1 0x4 CALLDATASIZE LT PUSH2 0x41 JUMPI PUSH1 0x0 CALLDATALOAD PUSH1 0xE0 SHR DUP1 PUSH4 0x66CC1FBB EQ PUSH2 0x46 JUMPI DUP1 PUSH4 0x91479824 EQ PUSH2 0x76 JUMPI DUP1 PUSH4 0xAB2217E4 EQ PUSH2 0xA6 JUMPI JUMPDEST PUSH1 0x0 DUP1 REVERT JUMPDEST PUSH2 0x60 PUSH1 0x4 DUP1 CALLDATASIZE SUB DUP2 ADD SWAP1 PUSH2 0x5B SWAP2 SWAP1 PUSH2 0x98F JUMP JUMPDEST PUSH2 0xD6 JUMP JUMPDEST PUSH1 0x40 MLOAD PUSH2 0x6D SWAP2 SWAP1 PUSH2 0xB53 JUMP JUMPDEST PUSH1 0x40 MLOAD DUP1 SWAP2 SUB SWAP1 RETURN JUMPDEST PUSH2 0x90 PUSH1 0x4 DUP1 CALLDATASIZE SUB DUP2 ADD SWAP1 PUSH2 0x8B SWAP2 SWAP1 PUSH2 0xBB3 JUMP JUMPDEST PUSH2 0x3F8 JUMP JUMPDEST PUSH1 0x40 MLOAD PUSH2 0x9D SWAP2 SWAP1 PUSH2 0xC15 JUMP JUMPDEST PUSH1 0x40 MLOAD DUP1 SWAP2 SUB SWAP1 RETURN JUMPDEST PUSH2 0xC0 PUSH1 0x4 DUP1 CALLDATASIZE SUB DUP2 ADD SWAP1 PUSH2 0xBB SWAP2 SWAP1 PUSH2 0xC5C JUMP JUMPDEST PUSH2 0x48E JUMP JUMPDEST PUSH1 0x40 MLOAD PUSH2 0xCD SWAP2 SWAP1 PUSH2 0xE09 JUMP JUMPDEST PUSH1 0x40 MLOAD DUP1 SWAP2 SUB SWAP1 RETURN JUMPDEST PUSH1 0x60 PUSH1 0x0 DUP5 DUP5 SWAP1 POP PUSH8 0xFFFFFFFFFFFFFFFF DUP2 GT ISZERO PUSH2 0xF7 JUMPI PUSH2 0xF6 PUSH2 0xE2B JUMP JUMPDEST JUMPDEST PUSH1 0x40 MLOAD SWAP1 DUP1 DUP3 MSTORE DUP1 PUSH1 0x20 MUL PUSH1 0x20 ADD DUP3 ADD PUSH1 0x40 MSTORE DUP1 ISZERO PUSH2 0x130 JUMPI DUP2 PUSH1 0x20 ADD JUMPDEST PUSH2 0x11D PUSH2 0x87E JUMP JUMPDEST DUP2 MSTORE PUSH1 0x20 ADD SWAP1 PUSH1 0x1 SWAP1 SUB SWAP1 DUP2 PUSH2 0x115 JUMPI SWAP1 POP JUMPDEST POP SWAP1 POP PUSH1 0x0 JUMPDEST DUP6 DUP6 SWAP1 POP DUP2 LT ISZERO PUSH2 0x3EC JUMPI PUSH1 0x0 DUP7 DUP7 DUP4 DUP2 DUP2 LT PUSH2 0x156 JUMPI PUSH2 0x155 PUSH2 0xE5A JUMP JUMPDEST JUMPDEST SWAP1 POP PUSH1 0x20 MUL ADD PUSH1 0x20 DUP2 ADD SWAP1 PUSH2 0x16B SWAP2 SWAP1 PUSH2 0xEC7 JUMP JUMPDEST PUSH20 0xFFFFFFFFFFFFFFFFFFFFFFFFFFFFFFFFFFFFFFFF AND PUSH4 0xDFE1681 PUSH1 0x40 MLOAD DUP2 PUSH4 0xFFFFFFFF AND PUSH1 0xE0 SHL DUP2 MSTORE PUSH1 0x4 ADD PUSH1 0x20 PUSH1 0x40 MLOAD DUP1 DUP4 SUB DUP2 DUP7 GAS STATICCALL ISZERO DUP1 ISZERO PUSH2 0x1B5 JUMPI RETURNDATASIZE PUSH1 0x0 DUP1 RETURNDATACOPY RETURNDATASIZE PUSH1 0x0 REVERT JUMPDEST POP POP POP POP PUSH1 0x40 MLOAD RETURNDATASIZE PUSH1 0x1F NOT PUSH1 0x1F DUP3 ADD AND DUP3 ADD DUP1 PUSH1 0x40 MSTORE POP DUP2 ADD SWAP1 PUSH2 0x1D9 SWAP2 SWAP1 PUSH2 0xF09 JUMP JUMPDEST SWAP1 POP PUSH1 0x0 DUP8 DUP8 DUP5 DUP2 DUP2 LT PUSH2 0x1F0 JUMPI PUSH2 0x1EF PUSH2 0xE5A JUMP JUMPDEST JUMPDEST SWAP1 POP PUSH1 0x20 MUL ADD PUSH1 0x20 DUP2 ADD SWAP1 PUSH2 0x205 SWAP2 SWAP1 PUSH2 0xEC7 JUMP JUMPDEST PUSH20 0xFFFFFFFFFFFFFFFFFFFFFFFFFFFFFFFFFFFFFFFF AND PUSH4 0xD21220A7 PUSH1 0x40 MLOAD DUP2 PUSH4 0xFFFFFFFF AND PUSH1 0xE0 SHL DUP2 MSTORE PUSH1 0x4 ADD PUSH1 0x20 PUSH1 0x40 MLOAD DUP1 DUP4 SUB DUP2 DUP7 GAS STATICCALL ISZERO DUP1 ISZERO PUSH2 0x24F JUMPI RETURNDATASIZE PUSH1 0x0 DUP1 RETURNDATACOPY RETURNDATASIZE PUSH1 0x0 REVERT JUMPDEST POP POP POP POP PUSH1 0x40 MLOAD RETURNDATASIZE PUSH1 0x1F NOT PUSH1 0x1F DUP3 ADD AND DUP3 ADD DUP1 PUSH1 0x40 MSTORE POP DUP2 ADD SWAP1 PUSH2 0x273 SWAP2 SWAP1 PUSH2 0xF09 JUMP JUMPDEST SWAP1 POP DUP2 PUSH20 0xFFFFFFFFFFFFFFFFFFFFFFFFFFFFFFFFFFFFFFFF AND PUSH4 0x70A08231 DUP8 PUSH1 0x40 MLOAD DUP3 PUSH4 0xFFFFFFFF AND PUSH1 0xE0 SHL DUP2 MSTORE PUSH1 0x4 ADD PUSH2 0x2AE SWAP2 SWAP1 PUSH2 0xC15 JUMP JUMPDEST PUSH1 0x20 PUSH1 0x40 MLOAD DUP1 DUP4 SUB DUP2 DUP7 GAS STATICCALL ISZERO DUP1 ISZERO PUSH2 0x2CB JUMPI RETURNDATASIZE PUSH1 0x0 DUP1 RETURNDATACOPY RETURNDATASIZE PUSH1 0x0 REVERT JUMPDEST POP POP POP POP PUSH1 0x40 MLOAD RETURNDATASIZE PUSH1 0x1F NOT PUSH1 0x1F DUP3 ADD AND DUP3 ADD DUP1 PUSH1 0x40 MSTORE POP DUP2 ADD SWAP1 PUSH2 0x2EF SWAP2 SWAP1 PUSH2 0xF4B JUMP JUMPDEST DUP5 DUP5 DUP2 MLOAD DUP2 LT PUSH2 0x302 JUMPI PUSH2 0x301 PUSH2 0xE5A JUMP JUMPDEST JUMPDEST PUSH1 0x20 MUL PUSH1 0x20 ADD ADD MLOAD PUSH1 0x0 PUSH1 0x2 DUP2 LT PUSH2 0x31D JUMPI PUSH2 0x31C PUSH2 0xE5A JUMP JUMPDEST JUMPDEST PUSH1 0x20 MUL ADD DUP2 DUP2 MSTORE POP POP DUP1 PUSH20 0xFFFFFFFFFFFFFFFFFFFFFFFFFFFFFFFFFFFFFFFF AND PUSH4 0x70A08231 DUP8 PUSH1 0x40 MLOAD DUP3 PUSH4 0xFFFFFFFF AND PUSH1 0xE0 SHL DUP2 MSTORE PUSH1 0x4 ADD PUSH2 0x35F SWAP2 SWAP1 PUSH2 0xC15 JUMP JUMPDEST PUSH1 0x20 PUSH1 0x40 MLOAD DUP1 DUP4 SUB DUP2 DUP7 GAS STATICCALL ISZERO DUP1 ISZERO PUSH2 0x37C JUMPI RETURNDATASIZE PUSH1 0x0 DUP1 RETURNDATACOPY RETURNDATASIZE PUSH1 0x0 REVERT JUMPDEST POP POP POP POP PUSH1 0x40 MLOAD RETURNDATASIZE PUSH1 0x1F NOT PUSH1 0x1F DUP3 ADD AND DUP3 ADD DUP1 PUSH1 0x40 MSTORE POP DUP2 ADD SWAP1 PUSH2 0x3A0 SWAP2 SWAP1 PUSH2 0xF4B JUMP JUMPDEST DUP5 DUP5 DUP2 MLOAD DUP2 LT PUSH2 0x3B3 JUMPI PUSH2 0x3B2 PUSH2 0xE5A JUMP JUMPDEST JUMPDEST PUSH1 0x20 MUL PUSH1 0x20 ADD ADD MLOAD PUSH1 0x1 PUSH1 0x2 DUP2 LT PUSH2 0x3CE JUMPI PUSH2 0x3CD PUSH2 0xE5A JUMP JUMPDEST JUMPDEST PUSH1 0x20 MUL ADD DUP2 DUP2 MSTORE POP POP POP POP DUP1 DUP1 PUSH2 0x3E4 SWAP1 PUSH2 0xFA7 JUMP JUMPDEST SWAP2 POP POP PUSH2 0x136 JUMP JUMPDEST POP DUP1 SWAP2 POP POP SWAP4 SWAP3 POP POP POP JUMP JUMPDEST PUSH1 0x0 DUP1 PUSH1 0x0 DUP6 PUSH20 0xFFFFFFFFFFFFFFFFFFFFFFFFFFFFFFFFFFFFFFFF AND PUSH4 0x1698EE82 DUP7 DUP7 PUSH2 0x1F4 PUSH1 0x40 MLOAD DUP5 PUSH4 0xFFFFFFFF AND PUSH1 0xE0 SHL DUP2 MSTORE PUSH1 0x4 ADD PUSH2 0x43C SWAP4 SWAP3 SWAP2 SWAP1 PUSH2 0x1043 JUMP JUMPDEST PUSH1 0x20 PUSH1 0x40 MLOAD DUP1 DUP4 SUB DUP2 DUP7 GAS STATICCALL ISZERO DUP1 ISZERO PUSH2 0x459 JUMPI RETURNDATASIZE PUSH1 0x0 DUP1 RETURNDATACOPY RETURNDATASIZE PUSH1 0x0 REVERT JUMPDEST POP POP POP POP PUSH1 0x40 MLOAD RETURNDATASIZE PUSH1 0x1F NOT PUSH1 0x1F DUP3 ADD AND DUP3 ADD DUP1 PUSH1 0x40 MSTORE POP DUP2 ADD SWAP1 PUSH2 0x47D SWAP2 SWAP1 PUSH2 0xF09 JUMP JUMPDEST SWAP1 POP DUP1 SWAP2 POP DUP2 SWAP3 POP POP POP SWAP4 SWAP3 POP POP POP JUMP JUMPDEST PUSH1 0x60 PUSH1 0x0 DUP5 PUSH20 0xFFFFFFFFFFFFFFFFFFFFFFFFFFFFFFFFFFFFFFFF AND PUSH4 0x574F2BA3 PUSH1 0x40 MLOAD DUP2 PUSH4 0xFFFFFFFF AND PUSH1 0xE0 SHL DUP2 MSTORE PUSH1 0x4 ADD PUSH1 0x20 PUSH1 0x40 MLOAD DUP1 DUP4 SUB DUP2 DUP7 GAS STATICCALL ISZERO DUP1 ISZERO PUSH2 0x4DD JUMPI RETURNDATASIZE PUSH1 0x0 DUP1 RETURNDATACOPY RETURNDATASIZE PUSH1 0x0 REVERT JUMPDEST POP POP POP POP PUSH1 0x40 MLOAD RETURNDATASIZE PUSH1 0x1F NOT PUSH1 0x1F DUP3 ADD AND DUP3 ADD DUP1 PUSH1 0x40 MSTORE POP DUP2 ADD SWAP1 PUSH2 0x501 SWAP2 SWAP1 PUSH2 0xF4B JUMP JUMPDEST SWAP1 POP DUP1 DUP4 GT ISZERO PUSH2 0x50F JUMPI DUP1 SWAP3 POP JUMPDEST DUP4 DUP4 LT ISZERO PUSH2 0x552 JUMPI PUSH1 0x40 MLOAD PUSH32 0x8C379A000000000000000000000000000000000000000000000000000000000 DUP2 MSTORE PUSH1 0x4 ADD PUSH2 0x549 SWAP1 PUSH2 0x10D7 JUMP JUMPDEST PUSH1 0x40 MLOAD DUP1 SWAP2 SUB SWAP1 REVERT JUMPDEST PUSH1 0x0 DUP5 DUP5 PUSH2 0x560 SWAP2 SWAP1 PUSH2 0x10F7 JUMP JUMPDEST SWAP1 POP PUSH1 0x0 DUP2 PUSH8 0xFFFFFFFFFFFFFFFF DUP2 GT ISZERO PUSH2 0x57E JUMPI PUSH2 0x57D PUSH2 0xE2B JUMP JUMPDEST JUMPDEST PUSH1 0x40 MLOAD SWAP1 DUP1 DUP3 MSTORE DUP1 PUSH1 0x20 MUL PUSH1 0x20 ADD DUP3 ADD PUSH1 0x40 MSTORE DUP1 ISZERO PUSH2 0x5B7 JUMPI DUP2 PUSH1 0x20 ADD JUMPDEST PUSH2 0x5A4 PUSH2 0x8A0 JUMP JUMPDEST DUP2 MSTORE PUSH1 0x20 ADD SWAP1 PUSH1 0x1 SWAP1 SUB SWAP1 DUP2 PUSH2 0x59C JUMPI SWAP1 POP JUMPDEST POP SWAP1 POP PUSH1 0x0 JUMPDEST DUP3 DUP2 LT ISZERO PUSH2 0x870 JUMPI PUSH1 0x0 DUP9 PUSH20 0xFFFFFFFFFFFFFFFFFFFFFFFFFFFFFFFFFFFFFFFF AND PUSH4 0x1E3DD18B DUP4 DUP11 PUSH2 0x5EF SWAP2 SWAP1 PUSH2 0x112B JUMP JUMPDEST PUSH1 0x40 MLOAD DUP3 PUSH4 0xFFFFFFFF AND PUSH1 0xE0 SHL DUP2 MSTORE PUSH1 0x4 ADD PUSH2 0x60B SWAP2 SWAP1 PUSH2 0x116E JUMP JUMPDEST PUSH1 0x20 PUSH1 0x40 MLOAD DUP1 DUP4 SUB DUP2 DUP7 GAS STATICCALL ISZERO DUP1 ISZERO PUSH2 0x628 JUMPI RETURNDATASIZE PUSH1 0x0 DUP1 RETURNDATACOPY RETURNDATASIZE PUSH1 0x0 REVERT JUMPDEST POP POP POP POP PUSH1 0x40 MLOAD RETURNDATASIZE PUSH1 0x1F NOT PUSH1 0x1F DUP3 ADD AND DUP3 ADD DUP1 PUSH1 0x40 MSTORE POP DUP2 ADD SWAP1 PUSH2 0x64C SWAP2 SWAP1 PUSH2 0xF09 JUMP JUMPDEST SWAP1 POP DUP1 PUSH20 0xFFFFFFFFFFFFFFFFFFFFFFFFFFFFFFFFFFFFFFFF AND PUSH4 0xDFE1681 PUSH1 0x40 MLOAD DUP2 PUSH4 0xFFFFFFFF AND PUSH1 0xE0 SHL DUP2 MSTORE PUSH1 0x4 ADD PUSH1 0x20 PUSH1 0x40 MLOAD DUP1 DUP4 SUB DUP2 DUP7 GAS STATICCALL ISZERO DUP1 ISZERO PUSH2 0x699 JUMPI RETURNDATASIZE PUSH1 0x0 DUP1 RETURNDATACOPY RETURNDATASIZE PUSH1 0x0 REVERT JUMPDEST POP POP POP POP PUSH1 0x40 MLOAD RETURNDATASIZE PUSH1 0x1F NOT PUSH1 0x1F DUP3 ADD AND DUP3 ADD DUP1 PUSH1 0x40 MSTORE POP DUP2 ADD SWAP1 PUSH2 0x6BD SWAP2 SWAP1 PUSH2 0xF09 JUMP JUMPDEST DUP4 DUP4 DUP2 MLOAD DUP2 LT PUSH2 0x6D0 JUMPI PUSH2 0x6CF PUSH2 0xE5A JUMP JUMPDEST JUMPDEST PUSH1 0x20 MUL PUSH1 0x20 ADD ADD MLOAD PUSH1 0x0 PUSH1 0x3 DUP2 LT PUSH2 0x6EB JUMPI PUSH2 0x6EA PUSH2 0xE5A JUMP JUMPDEST JUMPDEST PUSH1 0x20 MUL ADD SWAP1 PUSH20 0xFFFFFFFFFFFFFFFFFFFFFFFFFFFFFFFFFFFFFFFF AND SWAP1 DUP2 PUSH20 0xFFFFFFFFFFFFFFFFFFFFFFFFFFFFFFFFFFFFFFFF AND DUP2 MSTORE POP POP DUP1 PUSH20 0xFFFFFFFFFFFFFFFFFFFFFFFFFFFFFFFFFFFFFFFF AND PUSH4 0xD21220A7 PUSH1 0x40 MLOAD DUP2 PUSH4 0xFFFFFFFF AND PUSH1 0xE0 SHL DUP2 MSTORE PUSH1 0x4 ADD PUSH1 0x20 PUSH1 0x40 MLOAD DUP1 DUP4 SUB DUP2 DUP7 GAS STATICCALL ISZERO DUP1 ISZERO PUSH2 0x76D JUMPI RETURNDATASIZE PUSH1 0x0 DUP1 RETURNDATACOPY RETURNDATASIZE PUSH1 0x0 REVERT JUMPDEST POP POP POP POP PUSH1 0x40 MLOAD RETURNDATASIZE PUSH1 0x1F NOT PUSH1 0x1F DUP3 ADD AND DUP3 ADD DUP1 PUSH1 0x40 MSTORE POP DUP2 ADD SWAP1 PUSH2 0x791 SWAP2 SWAP1 PUSH2 0xF09 JUMP JUMPDEST DUP4 DUP4 DUP2 MLOAD DUP2 LT PUSH2 0x7A4 JUMPI PUSH2 0x7A3 PUSH2 0xE5A JUMP JUMPDEST JUMPDEST PUSH1 0x20 MUL PUSH1 0x20 ADD ADD MLOAD PUSH1 0x1 PUSH1 0x3 DUP2 LT PUSH2 0x7BF JUMPI PUSH2 0x7BE PUSH2 0xE5A JUMP JUMPDEST JUMPDEST PUSH1 0x20 MUL ADD SWAP1 PUSH20 0xFFFFFFFFFFFFFFFFFFFFFFFFFFFFFFFFFFFFFFFF AND SWAP1 DUP2 PUSH20 0xFFFFFFFFFFFFFFFFFFFFFFFFFFFFFFFFFFFFFFFF AND DUP2 MSTORE POP POP DUP1 DUP4 DUP4 DUP2 MLOAD DUP2 LT PUSH2 0x80A JUMPI PUSH2 0x809 PUSH2 0xE5A JUMP JUMPDEST JUMPDEST PUSH1 0x20 MUL PUSH1 0x20 ADD ADD MLOAD PUSH1 0x2 PUSH1 0x3 DUP2 LT PUSH2 0x825 JUMPI PUSH2 0x824 PUSH2 0xE5A JUMP JUMPDEST JUMPDEST PUSH1 0x20 MUL ADD SWAP1 PUSH20 0xFFFFFFFFFFFFFFFFFFFFFFFFFFFFFFFFFFFFFFFF AND SWAP1 DUP2 PUSH20 0xFFFFFFFFFFFFFFFFFFFFFFFFFFFFFFFFFFFFFFFF AND DUP2 MSTORE POP POP POP DUP1 DUP1 PUSH2 0x868 SWAP1 PUSH2 0xFA7 JUMP JUMPDEST SWAP2 POP POP PUSH2 0x5BD JUMP JUMPDEST POP DUP1 SWAP4 POP POP POP POP SWAP4 SWAP3 POP POP POP JUMP JUMPDEST PUSH1 0x40 MLOAD DUP1 PUSH1 0x40 ADD PUSH1 0x40 MSTORE DUP1 PUSH1 0x2 SWAP1 PUSH1 0x20 DUP3 MUL DUP1 CALLDATASIZE DUP4 CALLDATACOPY DUP1 DUP3 ADD SWAP2 POP POP SWAP1 POP POP SWAP1 JUMP JUMPDEST PUSH1 0x40 MLOAD DUP1 PUSH1 0x60 ADD PUSH1 0x40 MSTORE DUP1 PUSH1 0x3 SWAP1 PUSH1 0x20 DUP3 MUL DUP1 CALLDATASIZE DUP4 CALLDATACOPY DUP1 DUP3 ADD SWAP2 POP POP SWAP1 POP POP SWAP1 JUMP JUMPDEST PUSH1 0x0 DUP1 REVERT JUMPDEST PUSH1 0x0 DUP1 REVERT JUMPDEST PUSH1 0x0 DUP1 REVERT JUMPDEST PUSH1 0x0 DUP1 REVERT JUMPDEST PUSH1 0x0 DUP1 REVERT JUMPDEST PUSH1 0x0 DUP1 DUP4 PUSH1 0x1F DUP5 ADD SLT PUSH2 0x8F1 JUMPI PUSH2 0x8F0 PUSH2 0x8CC JUMP JUMPDEST JUMPDEST DUP3 CALLDATALOAD SWAP1 POP PUSH8 0xFFFFFFFFFFFFFFFF DUP2 GT ISZERO PUSH2 0x90E JUMPI PUSH2 0x90D PUSH2 0x8D1 JUMP JUMPDEST JUMPDEST PUSH1 0x20 DUP4 ADD SWAP2 POP DUP4 PUSH1 0x20 DUP3 MUL DUP4 ADD GT ISZERO PUSH2 0x92A JUMPI PUSH2 0x929 PUSH2 0x8D6 JUMP JUMPDEST JUMPDEST SWAP3 POP SWAP3 SWAP1 POP JUMP JUMPDEST PUSH1 0x0 PUSH20 0xFFFFFFFFFFFFFFFFFFFFFFFFFFFFFFFFFFFFFFFF DUP3 AND SWAP1 POP SWAP2 SWAP1 POP JUMP JUMPDEST PUSH1 0x0 PUSH2 0x95C DUP3 PUSH2 0x931 JUMP JUMPDEST SWAP1 POP SWAP2 SWAP1 POP JUMP JUMPDEST PUSH2 0x96C DUP2 PUSH2 0x951 JUMP JUMPDEST DUP2 EQ PUSH2 0x977 JUMPI PUSH1 0x0 DUP1 REVERT JUMPDEST POP JUMP JUMPDEST PUSH1 0x0 DUP2 CALLDATALOAD SWAP1 POP PUSH2 0x989 DUP2 PUSH2 0x963 JUMP JUMPDEST SWAP3 SWAP2 POP POP JUMP JUMPDEST PUSH1 0x0 DUP1 PUSH1 0x0 PUSH1 0x40 DUP5 DUP7 SUB SLT ISZERO PUSH2 0x9A8 JUMPI PUSH2 0x9A7 PUSH2 0x8C2 JUMP JUMPDEST JUMPDEST PUSH1 0x0 DUP5 ADD CALLDATALOAD PUSH8 0xFFFFFFFFFFFFFFFF DUP2 GT ISZERO PUSH2 0x9C6 JUMPI PUSH2 0x9C5 PUSH2 0x8C7 JUMP JUMPDEST JUMPDEST PUSH2 0x9D2 DUP7 DUP3 DUP8 ADD PUSH2 0x8DB JUMP JUMPDEST SWAP4 POP SWAP4 POP POP PUSH1 0x20 PUSH2 0x9E5 DUP7 DUP3 DUP8 ADD PUSH2 0x97A JUMP JUMPDEST SWAP2 POP POP SWAP3 POP SWAP3 POP SWAP3 JUMP JUMPDEST PUSH1 0x0 DUP2 MLOAD SWAP1 POP SWAP2 SWAP1 POP JUMP JUMPDEST PUSH1 0x0 DUP3 DUP3 MSTORE PUSH1 0x20 DUP3 ADD SWAP1 POP SWAP3 SWAP2 POP POP JUMP JUMPDEST PUSH1 0x0 DUP2 SWAP1 POP PUSH1 0x20 DUP3 ADD SWAP1 POP SWAP2 SWAP1 POP JUMP JUMPDEST PUSH1 0x0 PUSH1 0x2 SWAP1 POP SWAP2 SWAP1 POP JUMP JUMPDEST PUSH1 0x0 DUP2 SWAP1 POP SWAP3 SWAP2 POP POP JUMP JUMPDEST PUSH1 0x0 DUP2 SWAP1 POP SWAP2 SWAP1 POP JUMP JUMPDEST PUSH1 0x0 DUP2 SWAP1 POP SWAP2 SWAP1 POP JUMP JUMPDEST PUSH2 0xA4E DUP2 PUSH2 0xA3B JUMP JUMPDEST DUP3 MSTORE POP POP JUMP JUMPDEST PUSH1 0x0 PUSH2 0xA60 DUP4 DUP4 PUSH2 0xA45 JUMP JUMPDEST PUSH1 0x20 DUP4 ADD SWAP1 POP SWAP3 SWAP2 POP POP JUMP JUMPDEST PUSH1 0x0 PUSH1 0x20 DUP3 ADD SWAP1 POP SWAP2 SWAP1 POP JUMP JUMPDEST PUSH2 0xA82 DUP2 PUSH2 0xA1B JUMP JUMPDEST PUSH2 0xA8C DUP2 DUP5 PUSH2 0xA26 JUMP JUMPDEST SWAP3 POP PUSH2 0xA97 DUP3 PUSH2 0xA31 JUMP JUMPDEST DUP1 PUSH1 0x0 JUMPDEST DUP4 DUP2 LT ISZERO PUSH2 0xAC8 JUMPI DUP2 MLOAD PUSH2 0xAAF DUP8 DUP3 PUSH2 0xA54 JUMP JUMPDEST SWAP7 POP PUSH2 0xABA DUP4 PUSH2 0xA6C JUMP JUMPDEST SWAP3 POP POP PUSH1 0x1 DUP2 ADD SWAP1 POP PUSH2 0xA9B JUMP JUMPDEST POP POP POP POP POP POP JUMP JUMPDEST PUSH1 0x0 PUSH2 0xADC DUP4 DUP4 PUSH2 0xA79 JUMP JUMPDEST PUSH1 0x40 DUP4 ADD SWAP1 POP SWAP3 SWAP2 POP POP JUMP JUMPDEST PUSH1 0x0 PUSH1 0x20 DUP3 ADD SWAP1 POP SWAP2 SWAP1 POP JUMP JUMPDEST PUSH1 0x0 PUSH2 0xB00 DUP3 PUSH2 0x9EF JUMP JUMPDEST PUSH2 0xB0A DUP2 DUP6 PUSH2 0x9FA JUMP JUMPDEST SWAP4 POP PUSH2 0xB15 DUP4 PUSH2 0xA0B JUMP JUMPDEST DUP1 PUSH1 0x0 JUMPDEST DUP4 DUP2 LT ISZERO PUSH2 0xB46 JUMPI DUP2 MLOAD PUSH2 0xB2D DUP9 DUP3 PUSH2 0xAD0 JUMP JUMPDEST SWAP8 POP PUSH2 0xB38 DUP4 PUSH2 0xAE8 JUMP JUMPDEST SWAP3 POP POP PUSH1 0x1 DUP2 ADD SWAP1 POP PUSH2 0xB19 JUMP JUMPDEST POP DUP6 SWAP4 POP POP POP POP SWAP3 SWAP2 POP POP JUMP JUMPDEST PUSH1 0x0 PUSH1 0x20 DUP3 ADD SWAP1 POP DUP2 DUP2 SUB PUSH1 0x0 DUP4 ADD MSTORE PUSH2 0xB6D DUP2 DUP5 PUSH2 0xAF5 JUMP JUMPDEST SWAP1 POP SWAP3 SWAP2 POP POP JUMP JUMPDEST PUSH1 0x0 PUSH2 0xB80 DUP3 PUSH2 0x951 JUMP JUMPDEST SWAP1 POP SWAP2 SWAP1 POP JUMP JUMPDEST PUSH2 0xB90 DUP2 PUSH2 0xB75 JUMP JUMPDEST DUP2 EQ PUSH2 0xB9B JUMPI PUSH1 0x0 DUP1 REVERT JUMPDEST POP JUMP JUMPDEST PUSH1 0x0 DUP2 CALLDATALOAD SWAP1 POP PUSH2 0xBAD DUP2 PUSH2 0xB87 JUMP JUMPDEST SWAP3 SWAP2 POP POP JUMP JUMPDEST PUSH1 0x0 DUP1 PUSH1 0x0 PUSH1 0x60 DUP5 DUP7 SUB SLT ISZERO PUSH2 0xBCC JUMPI PUSH2 0xBCB PUSH2 0x8C2 JUMP JUMPDEST JUMPDEST PUSH1 0x0 PUSH2 0xBDA DUP7 DUP3 DUP8 ADD PUSH2 0xB9E JUMP JUMPDEST SWAP4 POP POP PUSH1 0x20 PUSH2 0xBEB DUP7 DUP3 DUP8 ADD PUSH2 0x97A JUMP JUMPDEST SWAP3 POP POP PUSH1 0x40 PUSH2 0xBFC DUP7 DUP3 DUP8 ADD PUSH2 0x97A JUMP JUMPDEST SWAP2 POP POP SWAP3 POP SWAP3 POP SWAP3 JUMP JUMPDEST PUSH2 0xC0F DUP2 PUSH2 0x951 JUMP JUMPDEST DUP3 MSTORE POP POP JUMP JUMPDEST PUSH1 0x0 PUSH1 0x20 DUP3 ADD SWAP1 POP PUSH2 0xC2A PUSH1 0x0 DUP4 ADD DUP5 PUSH2 0xC06 JUMP JUMPDEST SWAP3 SWAP2 POP POP JUMP JUMPDEST PUSH2 0xC39 DUP2 PUSH2 0xA3B JUMP JUMPDEST DUP2 EQ PUSH2 0xC44 JUMPI PUSH1 0x0 DUP1 REVERT JUMPDEST POP JUMP JUMPDEST PUSH1 0x0 DUP2 CALLDATALOAD SWAP1 POP PUSH2 0xC56 DUP2 PUSH2 0xC30 JUMP JUMPDEST SWAP3 SWAP2 POP POP JUMP JUMPDEST PUSH1 0x0 DUP1 PUSH1 0x0 PUSH1 0x60 DUP5 DUP7 SUB SLT ISZERO PUSH2 0xC75 JUMPI PUSH2 0xC74 PUSH2 0x8C2 JUMP JUMPDEST JUMPDEST PUSH1 0x0 PUSH2 0xC83 DUP7 DUP3 DUP8 ADD PUSH2 0xB9E JUMP JUMPDEST SWAP4 POP POP PUSH1 0x20 PUSH2 0xC94 DUP7 DUP3 DUP8 ADD PUSH2 0xC47 JUMP JUMPDEST SWAP3 POP POP PUSH1 0x40 PUSH2 0xCA5 DUP7 DUP3 DUP8 ADD PUSH2 0xC47 JUMP JUMPDEST SWAP2 POP POP SWAP3 POP SWAP3 POP SWAP3 JUMP JUMPDEST PUSH1 0x0 DUP2 MLOAD SWAP1 POP SWAP2 SWAP1 POP JUMP JUMPDEST PUSH1 0x0 DUP3 DUP3 MSTORE PUSH1 0x20 DUP3 ADD SWAP1 POP SWAP3 SWAP2 POP POP JUMP JUMPDEST PUSH1 0x0 DUP2 SWAP1 POP PUSH1 0x20 DUP3 ADD SWAP1 POP SWAP2 SWAP1 POP JUMP JUMPDEST PUSH1 0x0 PUSH1 0x3 SWAP1 POP SWAP2 SWAP1 POP JUMP JUMPDEST PUSH1 0x0 DUP2 SWAP1 POP SWAP3 SWAP2 POP POP JUMP JUMPDEST PUSH1 0x0 DUP2 SWAP1 POP SWAP2 SWAP1 POP JUMP JUMPDEST PUSH2 0xD04 DUP2 PUSH2 0x951 JUMP JUMPDEST DUP3 MSTORE POP POP JUMP JUMPDEST PUSH1 0x0 PUSH2 0xD16 DUP4 DUP4 PUSH2 0xCFB JUMP JUMPDEST PUSH1 0x20 DUP4 ADD SWAP1 POP SWAP3 SWAP2 POP POP JUMP JUMPDEST PUSH1 0x0 PUSH1 0x20 DUP3 ADD SWAP1 POP SWAP2 SWAP1 POP JUMP JUMPDEST PUSH2 0xD38 DUP2 PUSH2 0xCDB JUMP JUMPDEST PUSH2 0xD42 DUP2 DUP5 PUSH2 0xCE6 JUMP JUMPDEST SWAP3 POP PUSH2 0xD4D DUP3 PUSH2 0xCF1 JUMP JUMPDEST DUP1 PUSH1 0x0 JUMPDEST DUP4 DUP2 LT ISZERO PUSH2 0xD7E JUMPI DUP2 MLOAD PUSH2 0xD65 DUP8 DUP3 PUSH2 0xD0A JUMP JUMPDEST SWAP7 POP PUSH2 0xD70 DUP4 PUSH2 0xD22 JUMP JUMPDEST SWAP3 POP POP PUSH1 0x1 DUP2 ADD SWAP1 POP PUSH2 0xD51 JUMP JUMPDEST POP POP POP POP POP POP JUMP JUMPDEST PUSH1 0x0 PUSH2 0xD92 DUP4 DUP4 PUSH2 0xD2F JUMP JUMPDEST PUSH1 0x60 DUP4 ADD SWAP1 POP SWAP3 SWAP2 POP POP JUMP JUMPDEST PUSH1 0x0 PUSH1 0x20 DUP3 ADD SWAP1 POP SWAP2 SWAP1 POP JUMP JUMPDEST PUSH1 0x0 PUSH2 0xDB6 DUP3 PUSH2 0xCAF JUMP JUMPDEST PUSH2 0xDC0 DUP2 DUP6 PUSH2 0xCBA JUMP JUMPDEST SWAP4 POP PUSH2 0xDCB DUP4 PUSH2 0xCCB JUMP JUMPDEST DUP1 PUSH1 0x0 JUMPDEST DUP4 DUP2 LT ISZERO PUSH2 0xDFC JUMPI DUP2 MLOAD PUSH2 0xDE3 DUP9 DUP3 PUSH2 0xD86 JUMP JUMPDEST SWAP8 POP PUSH2 0xDEE DUP4 PUSH2 0xD9E JUMP JUMPDEST SWAP3 POP POP PUSH1 0x1 DUP2 ADD SWAP1 POP PUSH2 0xDCF JUMP JUMPDEST POP DUP6 SWAP4 POP POP POP POP SWAP3 SWAP2 POP POP JUMP JUMPDEST PUSH1 0x0 PUSH1 0x20 DUP3 ADD SWAP1 POP DUP2 DUP2 SUB PUSH1 0x0 DUP4 ADD MSTORE PUSH2 0xE23 DUP2 DUP5 PUSH2 0xDAB JUMP JUMPDEST SWAP1 POP SWAP3 SWAP2 POP POP JUMP JUMPDEST PUSH32 0x4E487B7100000000000000000000000000000000000000000000000000000000 PUSH1 0x0 MSTORE PUSH1 0x41 PUSH1 0x4 MSTORE PUSH1 0x24 PUSH1 0x0 REVERT JUMPDEST PUSH32 0x4E487B7100000000000000000000000000000000000000000000000000000000 PUSH1 0x0 MSTORE PUSH1 0x32 PUSH1 0x4 MSTORE PUSH1 0x24 PUSH1 0x0 REVERT JUMPDEST PUSH1 0x0 PUSH2 0xE94 DUP3 PUSH2 0x951 JUMP JUMPDEST SWAP1 POP SWAP2 SWAP1 POP JUMP JUMPDEST PUSH2 0xEA4 DUP2 PUSH2 0xE89 JUMP JUMPDEST DUP2 EQ PUSH2 0xEAF JUMPI PUSH1 0x0 DUP1 REVERT JUMPDEST POP JUMP JUMPDEST PUSH1 0x0 DUP2 CALLDATALOAD SWAP1 POP PUSH2 0xEC1 DUP2 PUSH2 0xE9B JUMP JUMPDEST SWAP3 SWAP2 POP POP JUMP JUMPDEST PUSH1 0x0 PUSH1 0x20 DUP3 DUP5 SUB SLT ISZERO PUSH2 0xEDD JUMPI PUSH2 0xEDC PUSH2 0x8C2 JUMP JUMPDEST JUMPDEST PUSH1 0x0 PUSH2 0xEEB DUP5 DUP3 DUP6 ADD PUSH2 0xEB2 JUMP JUMPDEST SWAP2 POP POP SWAP3 SWAP2 POP POP JUMP JUMPDEST PUSH1 0x0 DUP2 MLOAD SWAP1 POP PUSH2 0xF03 DUP2 PUSH2 0x963 JUMP JUMPDEST SWAP3 SWAP2 POP POP JUMP JUMPDEST PUSH1 0x0 PUSH1 0x20 DUP3 DUP5 SUB SLT ISZERO PUSH2 0xF1F JUMPI PUSH2 0xF1E PUSH2 0x8C2 JUMP JUMPDEST JUMPDEST PUSH1 0x0 PUSH2 0xF2D DUP5 DUP3 DUP6 ADD PUSH2 0xEF4 JUMP JUMPDEST SWAP2 POP POP SWAP3 SWAP2 POP POP JUMP JUMPDEST PUSH1 0x0 DUP2 MLOAD SWAP1 POP PUSH2 0xF45 DUP2 PUSH2 0xC30 JUMP JUMPDEST SWAP3 SWAP2 POP POP JUMP JUMPDEST PUSH1 0x0 PUSH1 0x20 DUP3 DUP5 SUB SLT ISZERO PUSH2 0xF61 JUMPI PUSH2 0xF60 PUSH2 0x8C2 JUMP JUMPDEST JUMPDEST PUSH1 0x0 PUSH2 0xF6F DUP5 DUP3 DUP6 ADD PUSH2 0xF36 JUMP JUMPDEST SWAP2 POP POP SWAP3 SWAP2 POP POP JUMP JUMPDEST PUSH32 0x4E487B7100000000000000000000000000000000000000000000000000000000 PUSH1 0x0 MSTORE PUSH1 0x11 PUSH1 0x4 MSTORE PUSH1 0x24 PUSH1 0x0 REVERT JUMPDEST PUSH1 0x0 PUSH2 0xFB2 DUP3 PUSH2 0xA3B JUMP JUMPDEST SWAP2 POP PUSH32 0xFFFFFFFFFFFFFFFFFFFFFFFFFFFFFFFFFFFFFFFFFFFFFFFFFFFFFFFFFFFFFFFF DUP3 SUB PUSH2 0xFE4 JUMPI PUSH2 0xFE3 PUSH2 0xF78 JUMP JUMPDEST JUMPDEST PUSH1 0x1 DUP3 ADD SWAP1 POP SWAP2 SWAP1 POP JUMP JUMPDEST PUSH1 0x0 DUP2 SWAP1 POP SWAP2 SWAP1 POP JUMP JUMPDEST PUSH1 0x0 PUSH3 0xFFFFFF DUP3 AND SWAP1 POP SWAP2 SWAP1 POP JUMP JUMPDEST PUSH1 0x0 DUP2 SWAP1 POP SWAP2 SWAP1 POP JUMP JUMPDEST PUSH1 0x0 PUSH2 0x102D PUSH2 0x1028 PUSH2 0x1023 DUP5 PUSH2 0xFEF JUMP JUMPDEST PUSH2 0x1008 JUMP JUMPDEST PUSH2 0xFF9 JUMP JUMPDEST SWAP1 POP SWAP2 SWAP1 POP JUMP JUMPDEST PUSH2 0x103D DUP2 PUSH2 0x1012 JUMP JUMPDEST DUP3 MSTORE POP POP JUMP JUMPDEST PUSH1 0x0 PUSH1 0x60 DUP3 ADD SWAP1 POP PUSH2 0x1058 PUSH1 0x0 DUP4 ADD DUP7 PUSH2 0xC06 JUMP JUMPDEST PUSH2 0x1065 PUSH1 0x20 DUP4 ADD DUP6 PUSH2 0xC06 JUMP JUMPDEST PUSH2 0x1072 PUSH1 0x40 DUP4 ADD DUP5 PUSH2 0x1034 JUMP JUMPDEST SWAP5 SWAP4 POP POP POP POP JUMP JUMPDEST PUSH1 0x0 DUP3 DUP3 MSTORE PUSH1 0x20 DUP3 ADD SWAP1 POP SWAP3 SWAP2 POP POP JUMP JUMPDEST PUSH32 0x73746172742063616E6E6F7420626520686967686572207468616E2073746F70 PUSH1 0x0 DUP3 ADD MSTORE POP JUMP JUMPDEST PUSH1 0x0 PUSH2 0x10C1 PUSH1 0x20 DUP4 PUSH2 0x107A JUMP JUMPDEST SWAP2 POP PUSH2 0x10CC DUP3 PUSH2 0x108B JUMP JUMPDEST PUSH1 0x20 DUP3 ADD SWAP1 POP SWAP2 SWAP1 POP JUMP JUMPDEST PUSH1 0x0 PUSH1 0x20 DUP3 ADD SWAP1 POP DUP2 DUP2 SUB PUSH1 0x0 DUP4 ADD MSTORE PUSH2 0x10F0 DUP2 PUSH2 0x10B4 JUMP JUMPDEST SWAP1 POP SWAP2 SWAP1 POP JUMP JUMPDEST PUSH1 0x0 PUSH2 0x1102 DUP3 PUSH2 0xA3B JUMP JUMPDEST SWAP2 POP PUSH2 0x110D DUP4 PUSH2 0xA3B JUMP JUMPDEST SWAP3 POP DUP3 DUP3 SUB SWAP1 POP DUP2 DUP2 GT ISZERO PUSH2 0x1125 JUMPI PUSH2 0x1124 PUSH2 0xF78 JUMP JUMPDEST JUMPDEST SWAP3 SWAP2 POP POP JUMP JUMPDEST PUSH1 0x0 PUSH2 0x1136 DUP3 PUSH2 0xA3B JUMP JUMPDEST SWAP2 POP PUSH2 0x1141 DUP4 PUSH2 0xA3B JUMP JUMPDEST SWAP3 POP DUP3 DUP3 ADD SWAP1 POP DUP1 DUP3 GT ISZERO PUSH2 0x1159 JUMPI PUSH2 0x1158 PUSH2 0xF78 JUMP JUMPDEST JUMPDEST SWAP3 SWAP2 POP POP JUMP JUMPDEST PUSH2 0x1168 DUP2 PUSH2 0xA3B JUMP JUMPDEST DUP3 MSTORE POP POP JUMP JUMPDEST PUSH1 0x0 PUSH1 0x20 DUP3 ADD SWAP1 POP PUSH2 0x1183 PUSH1 0x0 DUP4 ADD DUP5 PUSH2 0x115F JUMP JUMPDEST SWAP3 SWAP2 POP POP JUMP INVALID LOG2 PUSH5 0x6970667358 0x22 SLT KECCAK256 0xB9 0x25 PUSH4 0xAC2BBB17 MOD 0x5E 0xA8 0xE 0xD0 SLOAD PUSH9 0xC09F166ACBE125BCE0 0x24 0xDC 0xCD PUSH11 0xABE81D83CB64736F6C6343 STOP ADDMOD GT STOP CALLER "},"methodIdentifiers":{"getPairsByIndexRange(address,uint256,uint256)":"ab2217e4","getPairsByPool(address,address,address)":"91479824","getReservesByPairs(address[],address)":"66cc1fbb"}}}}}