{
  "_format": "hh-sol-artifact-1",
  "contractName": "UniswapFlashQuery",
  "sourceName": "contracts/UniswapFlashQuery.sol",
  "abi": [
    {
      "inputs": [
        {
          "internalType": "contract UniswapV2Factory",
          "name": "_uniswapFactory",
          "type": "address"
        },
        {
          "internalType": "uint256",
          "name": "_start",
          "type": "uint256"
        },
        {
          "internalType": "uint256",
          "name": "_stop",
          "type": "uint256"
        }
      ],
      "name": "getPairsByIndexRange",
      "outputs": [
        {
          "internalType": "address[3][]",
          "name": "",
          "type": "address[3][]"
        }
      ],
      "stateMutability": "view",
      "type": "function"
    },
    {
      "inputs": [
        {
          "internalType": "contract UniswapV2Factory",
          "name": "_uniswapFactory",
          "type": "address"
        },
        {
          "internalType": "address",
          "name": "_token1",
          "type": "address"
        },
        {
          "internalType": "address",
          "name": "_token2",
          "type": "address"
        }
      ],
      "name": "getPairsByPool",
      "outputs": [
        {
          "internalType": "address",
          "name": "",
          "type": "address"
        }
      ],
      "stateMutability": "view",
      "type": "function"
    },
    {
      "inputs": [
        {
          "internalType": "contract IUniswapV2Pair[]",
          "name": "_pairs",
          "type": "address[]"
        }
      ],
      "name": "getReservesByPairs",
      "outputs": [
        {
          "internalType": "uint256[2][]",
          "name": "",
          "type": "uint256[2][]"
        }
      ],
      "stateMutability": "view",
      "type": "function"
    }
  ],
  "bytecode": "0x608060405234801561001057600080fd5b506111f9806100206000396000f3fe608060405234801561001057600080fd5b50600436106100415760003560e01c80634dbf0f39146100465780639147982414610076578063ab2217e4146100a6575b600080fd5b610060600480360381019061005b919061097e565b6100d6565b60405161006d9190610b2f565b60405180910390f35b610090600480360381019061008b9190610bed565b610445565b60405161009d9190610c4f565b60405180910390f35b6100c060048036038101906100bb9190610c96565b6104db565b6040516100cd9190610e43565b60405180910390f35b606060008383905067ffffffffffffffff8111156100f7576100f6610e65565b5b60405190808252806020026020018201604052801561013057816020015b61011d6108cb565b8152602001906001900390816101155790505b50905060005b8484905081101561043a57600085858381811061015657610155610e94565b5b905060200201602081019061016b9190610f01565b73ffffffffffffffffffffffffffffffffffffffff16630dfe16816040518163ffffffff1660e01b8152600401602060405180830381865afa1580156101b5573d6000803e3d6000fd5b505050506040513d601f19601f820116820180604052508101906101d99190610f43565b905060008686848181106101f0576101ef610e94565b5b90506020020160208101906102059190610f01565b73ffffffffffffffffffffffffffffffffffffffff1663d21220a76040518163ffffffff1660e01b8152600401602060405180830381865afa15801561024f573d6000803e3d6000fd5b505050506040513d601f19601f820116820180604052508101906102739190610f43565b90508173ffffffffffffffffffffffffffffffffffffffff166370a082318888868181106102a4576102a3610e94565b5b90506020020160208101906102b99190610f01565b6040518263ffffffff1660e01b81526004016102d59190610c4f565b602060405180830381865afa1580156102f2573d6000803e3d6000fd5b505050506040513d601f19601f820116820180604052508101906103169190610f85565b84848151811061032957610328610e94565b5b602002602001015160006002811061034457610343610e94565b5b6020020181815250508073ffffffffffffffffffffffffffffffffffffffff166370a0823188888681811061037c5761037b610e94565b5b90506020020160208101906103919190610f01565b6040518263ffffffff1660e01b81526004016103ad9190610c4f565b602060405180830381865afa1580156103ca573d6000803e3d6000fd5b505050506040513d601f19601f820116820180604052508101906103ee9190610f85565b84848151811061040157610400610e94565b5b602002602001015160016002811061041c5761041b610e94565b5b6020020181815250505050808061043290610fe1565b915050610136565b508091505092915050565b60008060008573ffffffffffffffffffffffffffffffffffffffff16631698ee8286866101f46040518463ffffffff1660e01b81526004016104899392919061107d565b602060405180830381865afa1580156104a6573d6000803e3d6000fd5b505050506040513d601f19601f820116820180604052508101906104ca9190610f43565b905080915081925050509392505050565b606060008473ffffffffffffffffffffffffffffffffffffffff1663574f2ba36040518163ffffffff1660e01b8152600401602060405180830381865afa15801561052a573d6000803e3d6000fd5b505050506040513d601f19601f8201168201806040525081019061054e9190610f85565b90508083111561055c578092505b8383101561059f576040517f08c379a000000000000000000000000000000000000000000000000000000000815260040161059690611111565b60405180910390fd5b600084846105ad9190611131565b905060008167ffffffffffffffff8111156105cb576105ca610e65565b5b60405190808252806020026020018201604052801561060457816020015b6105f16108ed565b8152602001906001900390816105e95790505b50905060005b828110156108bd5760008873ffffffffffffffffffffffffffffffffffffffff16631e3dd18b838a61063c9190611165565b6040518263ffffffff1660e01b815260040161065891906111a8565b602060405180830381865afa158015610675573d6000803e3d6000fd5b505050506040513d601f19601f820116820180604052508101906106999190610f43565b90508073ffffffffffffffffffffffffffffffffffffffff16630dfe16816040518163ffffffff1660e01b8152600401602060405180830381865afa1580156106e6573d6000803e3d6000fd5b505050506040513d601f19601f8201168201806040525081019061070a9190610f43565b83838151811061071d5761071c610e94565b5b602002602001015160006003811061073857610737610e94565b5b602002019073ffffffffffffffffffffffffffffffffffffffff16908173ffffffffffffffffffffffffffffffffffffffff16815250508073ffffffffffffffffffffffffffffffffffffffff1663d21220a76040518163ffffffff1660e01b8152600401602060405180830381865afa1580156107ba573d6000803e3d6000fd5b505050506040513d601f19601f820116820180604052508101906107de9190610f43565b8383815181106107f1576107f0610e94565b5b602002602001015160016003811061080c5761080b610e94565b5b602002019073ffffffffffffffffffffffffffffffffffffffff16908173ffffffffffffffffffffffffffffffffffffffff16815250508083838151811061085757610856610e94565b5b602002602001015160026003811061087257610871610e94565b5b602002019073ffffffffffffffffffffffffffffffffffffffff16908173ffffffffffffffffffffffffffffffffffffffff16815250505080806108b590610fe1565b91505061060a565b508093505050509392505050565b6040518060400160405280600290602082028036833780820191505090505090565b6040518060600160405280600390602082028036833780820191505090505090565b600080fd5b600080fd5b600080fd5b600080fd5b600080fd5b60008083601f84011261093e5761093d610919565b5b8235905067ffffffffffffffff81111561095b5761095a61091e565b5b60208301915083602082028301111561097757610976610923565b5b9250929050565b600080602083850312156109955761099461090f565b5b600083013567ffffffffffffffff8111156109b3576109b2610914565b5b6109bf85828601610928565b92509250509250929050565b600081519050919050565b600082825260208201905092915050565b6000819050602082019050919050565b600060029050919050565b600081905092915050565b6000819050919050565b6000819050919050565b610a2a81610a17565b82525050565b6000610a3c8383610a21565b60208301905092915050565b6000602082019050919050565b610a5e816109f7565b610a688184610a02565b9250610a7382610a0d565b8060005b83811015610aa4578151610a8b8782610a30565b9650610a9683610a48565b925050600181019050610a77565b505050505050565b6000610ab88383610a55565b60408301905092915050565b6000602082019050919050565b6000610adc826109cb565b610ae681856109d6565b9350610af1836109e7565b8060005b83811015610b22578151610b098882610aac565b9750610b1483610ac4565b925050600181019050610af5565b5085935050505092915050565b60006020820190508181036000830152610b498184610ad1565b905092915050565b600073ffffffffffffffffffffffffffffffffffffffff82169050919050565b6000610b7c82610b51565b9050919050565b6000610b8e82610b71565b9050919050565b610b9e81610b83565b8114610ba957600080fd5b50565b600081359050610bbb81610b95565b92915050565b610bca81610b71565b8114610bd557600080fd5b50565b600081359050610be781610bc1565b92915050565b600080600060608486031215610c0657610c0561090f565b5b6000610c1486828701610bac565b9350506020610c2586828701610bd8565b9250506040610c3686828701610bd8565b9150509250925092565b610c4981610b71565b82525050565b6000602082019050610c646000830184610c40565b92915050565b610c7381610a17565b8114610c7e57600080fd5b50565b600081359050610c9081610c6a565b92915050565b600080600060608486031215610caf57610cae61090f565b5b6000610cbd86828701610bac565b9350506020610cce86828701610c81565b9250506040610cdf86828701610c81565b9150509250925092565b600081519050919050565b600082825260208201905092915050565b6000819050602082019050919050565b600060039050919050565b600081905092915050565b6000819050919050565b610d3e81610b71565b82525050565b6000610d508383610d35565b60208301905092915050565b6000602082019050919050565b610d7281610d15565b610d7c8184610d20565b9250610d8782610d2b565b8060005b83811015610db8578151610d9f8782610d44565b9650610daa83610d5c565b925050600181019050610d8b565b505050505050565b6000610dcc8383610d69565b60608301905092915050565b6000602082019050919050565b6000610df082610ce9565b610dfa8185610cf4565b9350610e0583610d05565b8060005b83811015610e36578151610e1d8882610dc0565b9750610e2883610dd8565b925050600181019050610e09565b5085935050505092915050565b60006020820190508181036000830152610e5d8184610de5565b905092915050565b7f4e487b7100000000000000000000000000000000000000000000000000000000600052604160045260246000fd5b7f4e487b7100000000000000000000000000000000000000000000000000000000600052603260045260246000fd5b6000610ece82610b71565b9050919050565b610ede81610ec3565b8114610ee957600080fd5b50565b600081359050610efb81610ed5565b92915050565b600060208284031215610f1757610f1661090f565b5b6000610f2584828501610eec565b91505092915050565b600081519050610f3d81610bc1565b92915050565b600060208284031215610f5957610f5861090f565b5b6000610f6784828501610f2e565b91505092915050565b600081519050610f7f81610c6a565b92915050565b600060208284031215610f9b57610f9a61090f565b5b6000610fa984828501610f70565b91505092915050565b7f4e487b7100000000000000000000000000000000000000000000000000000000600052601160045260246000fd5b6000610fec82610a17565b91507fffffffffffffffffffffffffffffffffffffffffffffffffffffffffffffffff820361101e5761101d610fb2565b5b600182019050919050565b6000819050919050565b600062ffffff82169050919050565b6000819050919050565b600061106761106261105d84611029565b611042565b611033565b9050919050565b6110778161104c565b82525050565b60006060820190506110926000830186610c40565b61109f6020830185610c40565b6110ac604083018461106e565b949350505050565b600082825260208201905092915050565b7f73746172742063616e6e6f7420626520686967686572207468616e2073746f70600082015250565b60006110fb6020836110b4565b9150611106826110c5565b602082019050919050565b6000602082019050818103600083015261112a816110ee565b9050919050565b600061113c82610a17565b915061114783610a17565b925082820390508181111561115f5761115e610fb2565b5b92915050565b600061117082610a17565b915061117b83610a17565b925082820190508082111561119357611192610fb2565b5b92915050565b6111a281610a17565b82525050565b60006020820190506111bd6000830184611199565b9291505056fea2646970667358221220993e789f18dc87caea0086ff2cafe52707ae328473b806d4c0257510db37f05764736f6c63430008110033",
  "linkReferences": {},
  "deployedLinkReferences": {}
}