{
  "_format": "hh-sol-artifact-1",
  "contractName": "UniswapFlashQuery",
  "sourceName": "contracts/UniswapFlashQuery.sol",
  "abi": [
    {
      "inputs": [
        {
          "internalType": "contract UniswapV2Factory",
          "name": "_uniswapFactory",
          "type": "address"
        },
        {
          "internalType": "uint256",
          "name": "_start",
          "type": "uint256"
        },
        {
          "internalType": "uint256",
          "name": "_stop",
          "type": "uint256"
        }
      ],
      "name": "getPairsByIndexRange",
      "outputs": [
        {
          "internalType": "address[3][]",
          "name": "",
          "type": "address[3][]"
        }
      ],
      "stateMutability": "view",
      "type": "function"
    },
    {
      "inputs": [
        {
          "internalType": "contract UniswapV2Factory",
          "name": "_uniswapFactory",
          "type": "address"
        },
        {
          "internalType": "address",
          "name": "_token1",
          "type": "address"
        },
        {
          "internalType": "address",
          "name": "_token2",
          "type": "address"
        }
      ],
      "name": "getPairsByPool",
      "outputs": [
        {
          "internalType": "address",
          "name": "",
          "type": "address"
        }
      ],
      "stateMutability": "view",
      "type": "function"
    },
    {
      "inputs": [
        {
          "internalType": "contract IUniswapV2Pair[]",
          "name": "_pairs",
          "type": "address[]"
        }
      ],
      "name": "getReservesByPairs",
      "outputs": [
        {
          "internalType": "uint256[3][]",
          "name": "",
          "type": "uint256[3][]"
        }
      ],
      "stateMutability": "view",
      "type": "function"
    }
  ],
  "bytecode": "0x608060405234801561001057600080fd5b50611231806100206000396000f3fe608060405234801561001057600080fd5b50600436106100415760003560e01c80634dbf0f39146100465780639147982414610076578063ab2217e4146100a6575b600080fd5b610060600480360381019061005b91906109b6565b6100d6565b60405161006d9190610b67565b60405180910390f35b610090600480360381019061008b9190610c25565b61047d565b60405161009d9190610c87565b60405180910390f35b6100c060048036038101906100bb9190610cce565b610513565b6040516100cd9190610e7b565b60405180910390f35b606060008383905067ffffffffffffffff8111156100f7576100f6610e9d565b5b60405190808252806020026020018201604052801561013057816020015b61011d610903565b8152602001906001900390816101155790505b50905060005b8484905081101561047257600085858381811061015657610155610ecc565b5b905060200201602081019061016b9190610f39565b73ffffffffffffffffffffffffffffffffffffffff16630dfe16816040518163ffffffff1660e01b8152600401602060405180830381865afa1580156101b5573d6000803e3d6000fd5b505050506040513d601f19601f820116820180604052508101906101d99190610f7b565b905060008686848181106101f0576101ef610ecc565b5b90506020020160208101906102059190610f39565b73ffffffffffffffffffffffffffffffffffffffff1663d21220a76040518163ffffffff1660e01b8152600401602060405180830381865afa15801561024f573d6000803e3d6000fd5b505050506040513d601f19601f820116820180604052508101906102739190610f7b565b90508173ffffffffffffffffffffffffffffffffffffffff166370a082318888868181106102a4576102a3610ecc565b5b90506020020160208101906102b99190610f39565b6040518263ffffffff1660e01b81526004016102d59190610c87565b602060405180830381865afa1580156102f2573d6000803e3d6000fd5b505050506040513d601f19601f820116820180604052508101906103169190610fbd565b84848151811061032957610328610ecc565b5b602002602001015160006003811061034457610343610ecc565b5b6020020181815250508073ffffffffffffffffffffffffffffffffffffffff166370a0823188888681811061037c5761037b610ecc565b5b90506020020160208101906103919190610f39565b6040518263ffffffff1660e01b81526004016103ad9190610c87565b602060405180830381865afa1580156103ca573d6000803e3d6000fd5b505050506040513d601f19601f820116820180604052508101906103ee9190610fbd565b84848151811061040157610400610ecc565b5b602002602001015160016003811061041c5761041b610ecc565b5b6020020181815250504284848151811061043957610438610ecc565b5b602002602001015160026003811061045457610453610ecc565b5b6020020181815250505050808061046a90611019565b915050610136565b508091505092915050565b60008060008573ffffffffffffffffffffffffffffffffffffffff16631698ee8286866101f46040518463ffffffff1660e01b81526004016104c1939291906110b5565b602060405180830381865afa1580156104de573d6000803e3d6000fd5b505050506040513d601f19601f820116820180604052508101906105029190610f7b565b905080915081925050509392505050565b606060008473ffffffffffffffffffffffffffffffffffffffff1663574f2ba36040518163ffffffff1660e01b8152600401602060405180830381865afa158015610562573d6000803e3d6000fd5b505050506040513d601f19601f820116820180604052508101906105869190610fbd565b905080831115610594578092505b838310156105d7576040517f08c379a00000000000000000000000000000000000000000000000000000000081526004016105ce90611149565b60405180910390fd5b600084846105e59190611169565b905060008167ffffffffffffffff81111561060357610602610e9d565b5b60405190808252806020026020018201604052801561063c57816020015b610629610925565b8152602001906001900390816106215790505b50905060005b828110156108f55760008873ffffffffffffffffffffffffffffffffffffffff16631e3dd18b838a610674919061119d565b6040518263ffffffff1660e01b815260040161069091906111e0565b602060405180830381865afa1580156106ad573d6000803e3d6000fd5b505050506040513d601f19601f820116820180604052508101906106d19190610f7b565b90508073ffffffffffffffffffffffffffffffffffffffff16630dfe16816040518163ffffffff1660e01b8152600401602060405180830381865afa15801561071e573d6000803e3d6000fd5b505050506040513d601f19601f820116820180604052508101906107429190610f7b565b83838151811061075557610754610ecc565b5b60200260200101516000600381106107705761076f610ecc565b5b602002019073ffffffffffffffffffffffffffffffffffffffff16908173ffffffffffffffffffffffffffffffffffffffff16815250508073ffffffffffffffffffffffffffffffffffffffff1663d21220a76040518163ffffffff1660e01b8152600401602060405180830381865afa1580156107f2573d6000803e3d6000fd5b505050506040513d601f19601f820116820180604052508101906108169190610f7b565b83838151811061082957610828610ecc565b5b602002602001015160016003811061084457610843610ecc565b5b602002019073ffffffffffffffffffffffffffffffffffffffff16908173ffffffffffffffffffffffffffffffffffffffff16815250508083838151811061088f5761088e610ecc565b5b60200260200101516002600381106108aa576108a9610ecc565b5b602002019073ffffffffffffffffffffffffffffffffffffffff16908173ffffffffffffffffffffffffffffffffffffffff16815250505080806108ed90611019565b915050610642565b508093505050509392505050565b6040518060600160405280600390602082028036833780820191505090505090565b6040518060600160405280600390602082028036833780820191505090505090565b600080fd5b600080fd5b600080fd5b600080fd5b600080fd5b60008083601f84011261097657610975610951565b5b8235905067ffffffffffffffff81111561099357610992610956565b5b6020830191508360208202830111156109af576109ae61095b565b5b9250929050565b600080602083850312156109cd576109cc610947565b5b600083013567ffffffffffffffff8111156109eb576109ea61094c565b5b6109f785828601610960565b92509250509250929050565b600081519050919050565b600082825260208201905092915050565b6000819050602082019050919050565b600060039050919050565b600081905092915050565b6000819050919050565b6000819050919050565b610a6281610a4f565b82525050565b6000610a748383610a59565b60208301905092915050565b6000602082019050919050565b610a9681610a2f565b610aa08184610a3a565b9250610aab82610a45565b8060005b83811015610adc578151610ac38782610a68565b9650610ace83610a80565b925050600181019050610aaf565b505050505050565b6000610af08383610a8d565b60608301905092915050565b6000602082019050919050565b6000610b1482610a03565b610b1e8185610a0e565b9350610b2983610a1f565b8060005b83811015610b5a578151610b418882610ae4565b9750610b4c83610afc565b925050600181019050610b2d565b5085935050505092915050565b60006020820190508181036000830152610b818184610b09565b905092915050565b600073ffffffffffffffffffffffffffffffffffffffff82169050919050565b6000610bb482610b89565b9050919050565b6000610bc682610ba9565b9050919050565b610bd681610bbb565b8114610be157600080fd5b50565b600081359050610bf381610bcd565b92915050565b610c0281610ba9565b8114610c0d57600080fd5b50565b600081359050610c1f81610bf9565b92915050565b600080600060608486031215610c3e57610c3d610947565b5b6000610c4c86828701610be4565b9350506020610c5d86828701610c10565b9250506040610c6e86828701610c10565b9150509250925092565b610c8181610ba9565b82525050565b6000602082019050610c9c6000830184610c78565b92915050565b610cab81610a4f565b8114610cb657600080fd5b50565b600081359050610cc881610ca2565b92915050565b600080600060608486031215610ce757610ce6610947565b5b6000610cf586828701610be4565b9350506020610d0686828701610cb9565b9250506040610d1786828701610cb9565b9150509250925092565b600081519050919050565b600082825260208201905092915050565b6000819050602082019050919050565b600060039050919050565b600081905092915050565b6000819050919050565b610d7681610ba9565b82525050565b6000610d888383610d6d565b60208301905092915050565b6000602082019050919050565b610daa81610d4d565b610db48184610d58565b9250610dbf82610d63565b8060005b83811015610df0578151610dd78782610d7c565b9650610de283610d94565b925050600181019050610dc3565b505050505050565b6000610e048383610da1565b60608301905092915050565b6000602082019050919050565b6000610e2882610d21565b610e328185610d2c565b9350610e3d83610d3d565b8060005b83811015610e6e578151610e558882610df8565b9750610e6083610e10565b925050600181019050610e41565b5085935050505092915050565b60006020820190508181036000830152610e958184610e1d565b905092915050565b7f4e487b7100000000000000000000000000000000000000000000000000000000600052604160045260246000fd5b7f4e487b7100000000000000000000000000000000000000000000000000000000600052603260045260246000fd5b6000610f0682610ba9565b9050919050565b610f1681610efb565b8114610f2157600080fd5b50565b600081359050610f3381610f0d565b92915050565b600060208284031215610f4f57610f4e610947565b5b6000610f5d84828501610f24565b91505092915050565b600081519050610f7581610bf9565b92915050565b600060208284031215610f9157610f90610947565b5b6000610f9f84828501610f66565b91505092915050565b600081519050610fb781610ca2565b92915050565b600060208284031215610fd357610fd2610947565b5b6000610fe184828501610fa8565b91505092915050565b7f4e487b7100000000000000000000000000000000000000000000000000000000600052601160045260246000fd5b600061102482610a4f565b91507fffffffffffffffffffffffffffffffffffffffffffffffffffffffffffffffff820361105657611055610fea565b5b600182019050919050565b6000819050919050565b600062ffffff82169050919050565b6000819050919050565b600061109f61109a61109584611061565b61107a565b61106b565b9050919050565b6110af81611084565b82525050565b60006060820190506110ca6000830186610c78565b6110d76020830185610c78565b6110e460408301846110a6565b949350505050565b600082825260208201905092915050565b7f73746172742063616e6e6f7420626520686967686572207468616e2073746f70600082015250565b60006111336020836110ec565b915061113e826110fd565b602082019050919050565b6000602082019050818103600083015261116281611126565b9050919050565b600061117482610a4f565b915061117f83610a4f565b925082820390508181111561119757611196610fea565b5b92915050565b60006111a882610a4f565b91506111b383610a4f565b92508282019050808211156111cb576111ca610fea565b5b92915050565b6111da81610a4f565b82525050565b60006020820190506111f560008301846111d1565b9291505056fea2646970667358221220ec423968b15fae6181e988a3ab1c3438648bdd57de9034db3aa884b2a61a5b2f64736f6c63430008110033",
  "linkReferences": {},
  "deployedLinkReferences": {}
}