{
  "_format": "hh-sol-artifact-1",
  "contractName": "UniswapFlashQuery",
  "sourceName": "contracts/UniswapFlashQuery.sol",
  "abi": [
    {
      "inputs": [
        {
          "internalType": "contract UniswapV2Factory",
          "name": "_uniswapFactory",
          "type": "address"
        },
        {
          "internalType": "uint256",
          "name": "_start",
          "type": "uint256"
        },
        {
          "internalType": "uint256",
          "name": "_stop",
          "type": "uint256"
        }
      ],
      "name": "getPairsByIndexRange",
      "outputs": [
        {
          "internalType": "address[3][]",
          "name": "",
          "type": "address[3][]"
        }
      ],
      "stateMutability": "view",
      "type": "function"
    },
    {
      "inputs": [
        {
          "internalType": "contract IUniswapV2Pair[]",
          "name": "_pairs",
          "type": "address[]"
        }
      ],
      "name": "getReservesByPairs",
      "outputs": [
        {
          "internalType": "uint256[3][]",
          "name": "",
          "type": "uint256[3][]"
        }
      ],
      "stateMutability": "view",
      "type": "function"
    }
  ],
  "bytecode": "0x608060405234801561001057600080fd5b50610f64806100206000396000f3fe608060405234801561001057600080fd5b50600436106100365760003560e01c80634dbf0f391461003b578063ab2217e41461006b575b600080fd5b61005560048036038101906100509190610731565b61009b565b60405161006291906108e2565b60405180910390f35b610085600480360381019061008091906109a0565b61028e565b6040516100929190610b4d565b60405180910390f35b606060008383905067ffffffffffffffff8111156100bc576100bb610b6f565b5b6040519080825280602002602001820160405280156100f557816020015b6100e261067e565b8152602001906001900390816100da5790505b50905060005b848490508110156102835784848281811061011957610118610b9e565b5b905060200201602081019061012e9190610c0b565b73ffffffffffffffffffffffffffffffffffffffff16630902f1ac6040518163ffffffff1660e01b8152600401606060405180830381865afa158015610178573d6000803e3d6000fd5b505050506040513d601f19601f8201168201806040525081019061019c9190610cba565b826dffffffffffffffffffffffffffff169250816dffffffffffffffffffffffffffff1691508063ffffffff1690508484815181106101de576101dd610b9e565b5b60200260200101516000600381106101f9576101f8610b9e565b5b602002018585815181106102105761020f610b9e565b5b602002602001015160016003811061022b5761022a610b9e565b5b6020020186868151811061024257610241610b9e565b5b602002602001015160026003811061025d5761025c610b9e565b5b60200201838152508381525083815250505050808061027b90610d3c565b9150506100fb565b508091505092915050565b606060008473ffffffffffffffffffffffffffffffffffffffff1663574f2ba36040518163ffffffff1660e01b8152600401602060405180830381865afa1580156102dd573d6000803e3d6000fd5b505050506040513d601f19601f820116820180604052508101906103019190610d99565b90508083111561030f578092505b83831015610352576040517f08c379a000000000000000000000000000000000000000000000000000000000815260040161034990610e23565b60405180910390fd5b600084846103609190610e43565b905060008167ffffffffffffffff81111561037e5761037d610b6f565b5b6040519080825280602002602001820160405280156103b757816020015b6103a46106a0565b81526020019060019003908161039c5790505b50905060005b828110156106705760008873ffffffffffffffffffffffffffffffffffffffff16631e3dd18b838a6103ef9190610e77565b6040518263ffffffff1660e01b815260040161040b9190610eba565b602060405180830381865afa158015610428573d6000803e3d6000fd5b505050506040513d601f19601f8201168201806040525081019061044c9190610f01565b90508073ffffffffffffffffffffffffffffffffffffffff16630dfe16816040518163ffffffff1660e01b8152600401602060405180830381865afa158015610499573d6000803e3d6000fd5b505050506040513d601f19601f820116820180604052508101906104bd9190610f01565b8383815181106104d0576104cf610b9e565b5b60200260200101516000600381106104eb576104ea610b9e565b5b602002019073ffffffffffffffffffffffffffffffffffffffff16908173ffffffffffffffffffffffffffffffffffffffff16815250508073ffffffffffffffffffffffffffffffffffffffff1663d21220a76040518163ffffffff1660e01b8152600401602060405180830381865afa15801561056d573d6000803e3d6000fd5b505050506040513d601f19601f820116820180604052508101906105919190610f01565b8383815181106105a4576105a3610b9e565b5b60200260200101516001600381106105bf576105be610b9e565b5b602002019073ffffffffffffffffffffffffffffffffffffffff16908173ffffffffffffffffffffffffffffffffffffffff16815250508083838151811061060a57610609610b9e565b5b602002602001015160026003811061062557610624610b9e565b5b602002019073ffffffffffffffffffffffffffffffffffffffff16908173ffffffffffffffffffffffffffffffffffffffff168152505050808061066890610d3c565b9150506103bd565b508093505050509392505050565b6040518060600160405280600390602082028036833780820191505090505090565b6040518060600160405280600390602082028036833780820191505090505090565b600080fd5b600080fd5b600080fd5b600080fd5b600080fd5b60008083601f8401126106f1576106f06106cc565b5b8235905067ffffffffffffffff81111561070e5761070d6106d1565b5b60208301915083602082028301111561072a576107296106d6565b5b9250929050565b60008060208385031215610748576107476106c2565b5b600083013567ffffffffffffffff811115610766576107656106c7565b5b610772858286016106db565b92509250509250929050565b600081519050919050565b600082825260208201905092915050565b6000819050602082019050919050565b600060039050919050565b600081905092915050565b6000819050919050565b6000819050919050565b6107dd816107ca565b82525050565b60006107ef83836107d4565b60208301905092915050565b6000602082019050919050565b610811816107aa565b61081b81846107b5565b9250610826826107c0565b8060005b8381101561085757815161083e87826107e3565b9650610849836107fb565b92505060018101905061082a565b505050505050565b600061086b8383610808565b60608301905092915050565b6000602082019050919050565b600061088f8261077e565b6108998185610789565b93506108a48361079a565b8060005b838110156108d55781516108bc888261085f565b97506108c783610877565b9250506001810190506108a8565b5085935050505092915050565b600060208201905081810360008301526108fc8184610884565b905092915050565b600073ffffffffffffffffffffffffffffffffffffffff82169050919050565b600061092f82610904565b9050919050565b600061094182610924565b9050919050565b61095181610936565b811461095c57600080fd5b50565b60008135905061096e81610948565b92915050565b61097d816107ca565b811461098857600080fd5b50565b60008135905061099a81610974565b92915050565b6000806000606084860312156109b9576109b86106c2565b5b60006109c78682870161095f565b93505060206109d88682870161098b565b92505060406109e98682870161098b565b9150509250925092565b600081519050919050565b600082825260208201905092915050565b6000819050602082019050919050565b600060039050919050565b600081905092915050565b6000819050919050565b610a4881610924565b82525050565b6000610a5a8383610a3f565b60208301905092915050565b6000602082019050919050565b610a7c81610a1f565b610a868184610a2a565b9250610a9182610a35565b8060005b83811015610ac2578151610aa98782610a4e565b9650610ab483610a66565b925050600181019050610a95565b505050505050565b6000610ad68383610a73565b60608301905092915050565b6000602082019050919050565b6000610afa826109f3565b610b0481856109fe565b9350610b0f83610a0f565b8060005b83811015610b40578151610b278882610aca565b9750610b3283610ae2565b925050600181019050610b13565b5085935050505092915050565b60006020820190508181036000830152610b678184610aef565b905092915050565b7f4e487b7100000000000000000000000000000000000000000000000000000000600052604160045260246000fd5b7f4e487b7100000000000000000000000000000000000000000000000000000000600052603260045260246000fd5b6000610bd882610924565b9050919050565b610be881610bcd565b8114610bf357600080fd5b50565b600081359050610c0581610bdf565b92915050565b600060208284031215610c2157610c206106c2565b5b6000610c2f84828501610bf6565b91505092915050565b60006dffffffffffffffffffffffffffff82169050919050565b610c5b81610c38565b8114610c6657600080fd5b50565b600081519050610c7881610c52565b92915050565b600063ffffffff82169050919050565b610c9781610c7e565b8114610ca257600080fd5b50565b600081519050610cb481610c8e565b92915050565b600080600060608486031215610cd357610cd26106c2565b5b6000610ce186828701610c69565b9350506020610cf286828701610c69565b9250506040610d0386828701610ca5565b9150509250925092565b7f4e487b7100000000000000000000000000000000000000000000000000000000600052601160045260246000fd5b6000610d47826107ca565b91507fffffffffffffffffffffffffffffffffffffffffffffffffffffffffffffffff8203610d7957610d78610d0d565b5b600182019050919050565b600081519050610d9381610974565b92915050565b600060208284031215610daf57610dae6106c2565b5b6000610dbd84828501610d84565b91505092915050565b600082825260208201905092915050565b7f73746172742063616e6e6f7420626520686967686572207468616e2073746f70600082015250565b6000610e0d602083610dc6565b9150610e1882610dd7565b602082019050919050565b60006020820190508181036000830152610e3c81610e00565b9050919050565b6000610e4e826107ca565b9150610e59836107ca565b9250828203905081811115610e7157610e70610d0d565b5b92915050565b6000610e82826107ca565b9150610e8d836107ca565b9250828201905080821115610ea557610ea4610d0d565b5b92915050565b610eb4816107ca565b82525050565b6000602082019050610ecf6000830184610eab565b92915050565b610ede81610924565b8114610ee957600080fd5b50565b600081519050610efb81610ed5565b92915050565b600060208284031215610f1757610f166106c2565b5b6000610f2584828501610eec565b9150509291505056fea264697066735822122093b683a7d6307397fb59db71e98bd9270a016dff5cb8b77ddb824d4e188d9aba64736f6c63430008110033",
  "linkReferences": {},
  "deployedLinkReferences": {}
}